{
  "_format": "hh-sol-artifact-1",
  "contractName": "Stakable",
  "sourceName": "contracts/Stakable.sol",
  "abi": [
    {
      "inputs": [],
      "stateMutability": "nonpayable",
      "type": "constructor"
    },
    {
      "anonymous": false,
      "inputs": [
        {
          "indexed": true,
          "internalType": "address",
          "name": "holder",
          "type": "address"
        },
        {
          "indexed": false,
          "internalType": "uint256",
          "name": "amount",
          "type": "uint256"
        },
        {
          "indexed": false,
          "internalType": "uint256",
          "name": "stakeholderId",
          "type": "uint256"
        },
        {
          "indexed": false,
          "internalType": "uint256",
          "name": "stakedAt",
          "type": "uint256"
        }
      ],
      "name": "Staked",
      "type": "event"
    },
    {
      "inputs": [],
      "name": "stakeReport",
      "outputs": [
        {
          "internalType": "uint256",
          "name": "",
          "type": "uint256"
        },
        {
          "internalType": "uint256",
          "name": "",
          "type": "uint256"
        }
      ],
      "stateMutability": "view",
      "type": "function"
    }
  ],
  "bytecode": "0x608060405261697860005534801561001657600080fd5b506001808160018154018082558091505003906000526020600020905050610615806100436000396000f3fe608060405234801561001057600080fd5b506004361061002b5760003560e01c806396e35b2914610030575b600080fd5b61003861004f565b604051610046929190610390565b60405180910390f35b6000806000600260003373ffffffffffffffffffffffffffffffffffffffff1673ffffffffffffffffffffffffffffffffffffffff1681526020019081526020016000205414156100d5576040517f08c379a00000000000000000000000000000000000000000000000000000000081526004016100cc90610370565b60405180910390fd5b6000600260003373ffffffffffffffffffffffffffffffffffffffff1673ffffffffffffffffffffffffffffffffffffffff168152602001908152602001600020549050600060018281548110610155577f4e487b7100000000000000000000000000000000000000000000000000000000600052603260045260246000fd5b9060005260206000209060020201600101805490509050600080610179848461018f565b8092508193505050818195509550505050509091565b60008060008060005b858110156102ec576000600188815481106101dc577f4e487b7100000000000000000000000000000000000000000000000000000000600052603260045260246000fd5b90600052602060002090600202016001018281548110610225577f4e487b7100000000000000000000000000000000000000000000000000000000600052603260045260246000fd5b90600052602060002090600302016040518060600160405290816000820160009054906101000a900473ffffffffffffffffffffffffffffffffffffffff1673ffffffffffffffffffffffffffffffffffffffff1673ffffffffffffffffffffffffffffffffffffffff16815260200160018201548152602001600282015481525050905060006102b5826102fc565b90508160200151846102c791906103ca565b935080856102d591906103ca565b9450505080806102e4906104e9565b915050610198565b5081819350935050509250929050565b6000805482602001516201518084604001514261031991906104ab565b6103239190610420565b61032d9190610451565b6103379190610420565b9050919050565b600061034b6024836103b9565b915061035682610590565b604082019050919050565b61036a816104df565b82525050565b600060208201905081810360008301526103898161033e565b9050919050565b60006040820190506103a56000830185610361565b6103b26020830184610361565b9392505050565b600082825260208201905092915050565b60006103d5826104df565b91506103e0836104df565b9250827fffffffffffffffffffffffffffffffffffffffffffffffffffffffffffffffff0382111561041557610414610532565b5b828201905092915050565b600061042b826104df565b9150610436836104df565b92508261044657610445610561565b5b828204905092915050565b600061045c826104df565b9150610467836104df565b9250817fffffffffffffffffffffffffffffffffffffffffffffffffffffffffffffffff04831182151516156104a05761049f610532565b5b828202905092915050565b60006104b6826104df565b91506104c1836104df565b9250828210156104d4576104d3610532565b5b828203905092915050565b6000819050919050565b60006104f4826104df565b91507fffffffffffffffffffffffffffffffffffffffffffffffffffffffffffffffff82141561052757610526610532565b5b600182019050919050565b7f4e487b7100000000000000000000000000000000000000000000000000000000600052601160045260246000fd5b7f4e487b7100000000000000000000000000000000000000000000000000000000600052601260045260246000fd5b7f5374616b61626c653a206164647265737320686173206e6f7468696e6720737460008201527f616b65640000000000000000000000000000000000000000000000000000000060208201525056fea26469706673582212207c711fbf6902f843c0499344544be6d90d1631bf0f5df3678aaee60198fafc2164736f6c63430008040033",
  "linkReferences": {},
  "deployedLinkReferences": {}
}