{
  "_format": "hh-sol-artifact-1",
  "contractName": "Token",
  "sourceName": "contracts/Token.sol",
  "abi": [
    {
      "inputs": [
        {
          "internalType": "uint256",
          "name": "tokenTotalSupply",
          "type": "uint256"
        },
        {
          "internalType": "string",
          "name": "tokenName",
          "type": "string"
        },
        {
          "internalType": "string",
          "name": "tokenSymbol",
          "type": "string"
        },
        {
          "internalType": "uint8",
          "name": "tokenDecimals",
          "type": "uint8"
        }
      ],
      "stateMutability": "nonpayable",
      "type": "constructor"
    },
    {
      "anonymous": false,
      "inputs": [
        {
          "indexed": true,
          "internalType": "address",
          "name": "owner",
          "type": "address"
        },
        {
          "indexed": true,
          "internalType": "address",
          "name": "spender",
          "type": "address"
        },
        {
          "indexed": false,
          "internalType": "uint256",
          "name": "value",
          "type": "uint256"
        }
      ],
      "name": "Approval",
      "type": "event"
    },
    {
      "anonymous": false,
      "inputs": [
        {
          "indexed": true,
          "internalType": "address",
          "name": "previousOwner",
          "type": "address"
        },
        {
          "indexed": true,
          "internalType": "address",
          "name": "newOwner",
          "type": "address"
        }
      ],
      "name": "OwnershipTransferred",
      "type": "event"
    },
    {
      "anonymous": false,
      "inputs": [
        {
          "indexed": true,
          "internalType": "address",
          "name": "holder",
          "type": "address"
        },
        {
          "indexed": false,
          "internalType": "uint256",
          "name": "amount",
          "type": "uint256"
        },
        {
          "indexed": false,
          "internalType": "uint256",
          "name": "stakeholderId",
          "type": "uint256"
        },
        {
          "indexed": false,
          "internalType": "uint256",
          "name": "stakedAt",
          "type": "uint256"
        }
      ],
      "name": "Staked",
      "type": "event"
    },
    {
      "anonymous": false,
      "inputs": [
        {
          "indexed": true,
          "internalType": "address",
          "name": "from",
          "type": "address"
        },
        {
          "indexed": true,
          "internalType": "address",
          "name": "to",
          "type": "address"
        },
        {
          "indexed": false,
          "internalType": "uint256",
          "name": "value",
          "type": "uint256"
        }
      ],
      "name": "Transfer",
      "type": "event"
    },
    {
      "inputs": [
        {
          "internalType": "address",
          "name": "owner",
          "type": "address"
        },
        {
          "internalType": "address",
          "name": "spender",
          "type": "address"
        }
      ],
      "name": "allowance",
      "outputs": [
        {
          "internalType": "uint256",
          "name": "",
          "type": "uint256"
        }
      ],
      "stateMutability": "view",
      "type": "function"
    },
    {
      "inputs": [
        {
          "internalType": "address",
          "name": "spender",
          "type": "address"
        },
        {
          "internalType": "uint256",
          "name": "amount",
          "type": "uint256"
        }
      ],
      "name": "approve",
      "outputs": [
        {
          "internalType": "bool",
          "name": "",
          "type": "bool"
        }
      ],
      "stateMutability": "nonpayable",
      "type": "function"
    },
    {
      "inputs": [
        {
          "internalType": "address",
          "name": "account",
          "type": "address"
        }
      ],
      "name": "balanceOf",
      "outputs": [
        {
          "internalType": "uint256",
          "name": "",
          "type": "uint256"
        }
      ],
      "stateMutability": "view",
      "type": "function"
    },
    {
      "inputs": [
        {
          "internalType": "address",
          "name": "account",
          "type": "address"
        },
        {
          "internalType": "uint256",
          "name": "amount",
          "type": "uint256"
        }
      ],
      "name": "burn",
      "outputs": [
        {
          "internalType": "bool",
          "name": "",
          "type": "bool"
        }
      ],
      "stateMutability": "nonpayable",
      "type": "function"
    },
    {
      "inputs": [],
      "name": "claimReward",
      "outputs": [],
      "stateMutability": "nonpayable",
      "type": "function"
    },
    {
      "inputs": [],
      "name": "decimals",
      "outputs": [
        {
          "internalType": "uint8",
          "name": "",
          "type": "uint8"
        }
      ],
      "stateMutability": "view",
      "type": "function"
    },
    {
      "inputs": [
        {
          "internalType": "address",
          "name": "account",
          "type": "address"
        },
        {
          "internalType": "uint256",
          "name": "amount",
          "type": "uint256"
        }
      ],
      "name": "mint",
      "outputs": [
        {
          "internalType": "bool",
          "name": "",
          "type": "bool"
        }
      ],
      "stateMutability": "nonpayable",
      "type": "function"
    },
    {
      "inputs": [],
      "name": "name",
      "outputs": [
        {
          "internalType": "string",
          "name": "",
          "type": "string"
        }
      ],
      "stateMutability": "view",
      "type": "function"
    },
    {
      "inputs": [],
      "name": "owner",
      "outputs": [
        {
          "internalType": "address",
          "name": "",
          "type": "address"
        }
      ],
      "stateMutability": "view",
      "type": "function"
    },
    {
      "inputs": [],
      "name": "renounceOwnership",
      "outputs": [],
      "stateMutability": "nonpayable",
      "type": "function"
    },
    {
      "inputs": [
        {
          "internalType": "uint256",
          "name": "amount",
          "type": "uint256"
        }
      ],
      "name": "stake",
      "outputs": [],
      "stateMutability": "nonpayable",
      "type": "function"
    },
    {
      "inputs": [],
      "name": "stakeReport",
      "outputs": [
        {
          "internalType": "uint256",
          "name": "",
          "type": "uint256"
        },
        {
          "internalType": "uint256",
          "name": "",
          "type": "uint256"
        }
      ],
      "stateMutability": "view",
      "type": "function"
    },
    {
      "inputs": [],
      "name": "symbol",
      "outputs": [
        {
          "internalType": "string",
          "name": "",
          "type": "string"
        }
      ],
      "stateMutability": "view",
      "type": "function"
    },
    {
      "inputs": [],
      "name": "totalSupply",
      "outputs": [
        {
          "internalType": "uint256",
          "name": "",
          "type": "uint256"
        }
      ],
      "stateMutability": "view",
      "type": "function"
    },
    {
      "inputs": [
        {
          "internalType": "address",
          "name": "recipient",
          "type": "address"
        },
        {
          "internalType": "uint256",
          "name": "amount",
          "type": "uint256"
        }
      ],
      "name": "transfer",
      "outputs": [
        {
          "internalType": "bool",
          "name": "",
          "type": "bool"
        }
      ],
      "stateMutability": "nonpayable",
      "type": "function"
    },
    {
      "inputs": [
        {
          "internalType": "address",
          "name": "spender",
          "type": "address"
        },
        {
          "internalType": "address",
          "name": "recipient",
          "type": "address"
        },
        {
          "internalType": "uint256",
          "name": "amount",
          "type": "uint256"
        }
      ],
      "name": "transferFrom",
      "outputs": [
        {
          "internalType": "bool",
          "name": "",
          "type": "bool"
        }
      ],
      "stateMutability": "nonpayable",
      "type": "function"
    },
    {
      "inputs": [
        {
          "internalType": "address",
          "name": "newOwner",
          "type": "address"
        }
      ],
      "name": "transferOwnership",
      "outputs": [],
      "stateMutability": "nonpayable",
      "type": "function"
    },
    {
      "inputs": [
        {
          "internalType": "uint256",
          "name": "amount",
          "type": "uint256"
        }
      ],
      "name": "unstake",
      "outputs": [],
      "stateMutability": "nonpayable",
      "type": "function"
    }
  ],
  "bytecode": "0x60806040526169786001553480156200001757600080fd5b50604051620034723803806200347283398181016040528101906200003d9190620003a5565b6200005d620000516200018960201b60201c565b6200019160201b60201c565b6002600181600181540180825580915050039060005260206000209050508360048190555082600790805190602001906200009a92919062000255565b508160069080519060200190620000b392919062000255565b5080600560006101000a81548160ff021916908360ff160217905550600454600860003373ffffffffffffffffffffffffffffffffffffffff1673ffffffffffffffffffffffffffffffffffffffff168152602001908152602001600020819055503373ffffffffffffffffffffffffffffffffffffffff16600073ffffffffffffffffffffffffffffffffffffffff167fddf252ad1be2c89b69c2b068fc378daa952ba7f163c4a11628f55a4df523b3ef60045460405162000177919062000454565b60405180910390a3505050506200062c565b600033905090565b60008060009054906101000a900473ffffffffffffffffffffffffffffffffffffffff169050816000806101000a81548173ffffffffffffffffffffffffffffffffffffffff021916908373ffffffffffffffffffffffffffffffffffffffff1602179055508173ffffffffffffffffffffffffffffffffffffffff168173ffffffffffffffffffffffffffffffffffffffff167f8be0079c531659141344cd1fd0a4f28419497f9722a3daafe3b4186f6b6457e060405160405180910390a35050565b82805462000263906200051d565b90600052602060002090601f016020900481019282620002875760008555620002d3565b82601f10620002a257805160ff1916838001178555620002d3565b82800160010185558215620002d3579182015b82811115620002d2578251825591602001919060010190620002b5565b5b509050620002e29190620002e6565b5090565b5b8082111562000301576000816000905550600101620002e7565b5090565b60006200031c62000316846200049a565b62000471565b9050828152602081018484840111156200033557600080fd5b62000342848285620004e7565b509392505050565b600082601f8301126200035c57600080fd5b81516200036e84826020860162000305565b91505092915050565b6000815190506200038881620005f8565b92915050565b6000815190506200039f8162000612565b92915050565b60008060008060808587031215620003bc57600080fd5b6000620003cc8782880162000377565b945050602085015167ffffffffffffffff811115620003ea57600080fd5b620003f8878288016200034a565b935050604085015167ffffffffffffffff8111156200041657600080fd5b62000424878288016200034a565b925050606062000437878288016200038e565b91505092959194509250565b6200044e81620004d0565b82525050565b60006020820190506200046b600083018462000443565b92915050565b60006200047d62000490565b90506200048b828262000553565b919050565b6000604051905090565b600067ffffffffffffffff821115620004b857620004b7620005b8565b5b620004c382620005e7565b9050602081019050919050565b6000819050919050565b600060ff82169050919050565b60005b8381101562000507578082015181840152602081019050620004ea565b8381111562000517576000848401525b50505050565b600060028204905060018216806200053657607f821691505b602082108114156200054d576200054c62000589565b5b50919050565b6200055e82620005e7565b810181811067ffffffffffffffff8211171562000580576200057f620005b8565b5b80604052505050565b7f4e487b7100000000000000000000000000000000000000000000000000000000600052602260045260246000fd5b7f4e487b7100000000000000000000000000000000000000000000000000000000600052604160045260246000fd5b6000601f19601f8301169050919050565b6200060381620004d0565b81146200060f57600080fd5b50565b6200061d81620004da565b81146200062957600080fd5b50565b612e36806200063c6000396000f3fe608060405234801561001057600080fd5b50600436106101165760003560e01c80638da5cb5b116100a2578063a694fc3a11610071578063a694fc3a146102e6578063a9059cbb14610302578063b88a802f14610332578063dd62ed3e1461033c578063f2fde38b1461036c57610116565b80638da5cb5b1461025b57806395d89b411461027957806396e35b29146102975780639dc29fac146102b657610116565b80632e17de78116100e95780632e17de78146101b7578063313ce567146101d357806340c10f19146101f157806370a0823114610221578063715018a61461025157610116565b806306fdde031461011b578063095ea7b31461013957806318160ddd1461016957806323b872dd14610187575b600080fd5b610123610388565b604051610130919061245c565b60405180910390f35b610153600480360381019061014e9190612162565b61041a565b6040516101609190612441565b60405180910390f35b610171610431565b60405161017e919061263e565b60405180910390f35b6101a1600480360381019061019c9190612113565b61043b565b6040516101ae9190612441565b60405180910390f35b6101d160048036038101906101cc919061219e565b6105a4565b005b6101db6105bf565b6040516101e891906126b9565b60405180910390f35b61020b60048036038101906102069190612162565b6105d6565b6040516102189190612441565b60405180910390f35b61023b600480360381019061023691906120ae565b610668565b604051610248919061263e565b60405180910390f35b6102596106b1565b005b610263610739565b6040516102709190612426565b60405180910390f35b610281610762565b60405161028e919061245c565b60405180910390f35b61029f6107f4565b6040516102ad929190612659565b60405180910390f35b6102d060048036038101906102cb9190612162565b610934565b6040516102dd9190612441565b60405180910390f35b61030060048036038101906102fb919061219e565b6109c6565b005b61031c60048036038101906103179190612162565b610a5e565b6040516103299190612441565b60405180910390f35b61033a610a75565b005b610356600480360381019061035191906120d7565b610a8e565b604051610363919061263e565b60405180910390f35b610386600480360381019061038191906120ae565b610b15565b005b6060600780546103979061288d565b80601f01602080910402602001604051908101604052809291908181526020018280546103c39061288d565b80156104105780601f106103e557610100808354040283529160200191610410565b820191906000526020600020905b8154815290600101906020018083116103f357829003601f168201915b5050505050905090565b6000610427338484610c0d565b6001905092915050565b6000600454905090565b600081600960008673ffffffffffffffffffffffffffffffffffffffff1673ffffffffffffffffffffffffffffffffffffffff16815260200190815260200160002060003373ffffffffffffffffffffffffffffffffffffffff1673ffffffffffffffffffffffffffffffffffffffff1681526020019081526020016000205410156104fc576040517f08c379a00000000000000000000000000000000000000000000000000000000081526004016104f3906124fe565b60405180910390fd5b610507848484610dd8565b610599843384600960008973ffffffffffffffffffffffffffffffffffffffff1673ffffffffffffffffffffffffffffffffffffffff16815260200190815260200160002060003373ffffffffffffffffffffffffffffffffffffffff1673ffffffffffffffffffffffffffffffffffffffff1681526020019081526020016000205461059491906127d1565b610c0d565b600190509392505050565b60006105af826110c0565b90506105bb3382611453565b5050565b6000600560009054906101000a900460ff16905090565b60006105e06115cf565b73ffffffffffffffffffffffffffffffffffffffff166105fe610739565b73ffffffffffffffffffffffffffffffffffffffff1614610654576040517f08c379a000000000000000000000000000000000000000000000000000000000815260040161064b9061259e565b60405180910390fd5b61065e8383611453565b6001905092915050565b6000600860008373ffffffffffffffffffffffffffffffffffffffff1673ffffffffffffffffffffffffffffffffffffffff168152602001908152602001600020549050919050565b6106b96115cf565b73ffffffffffffffffffffffffffffffffffffffff166106d7610739565b73ffffffffffffffffffffffffffffffffffffffff161461072d576040517f08c379a00000000000000000000000000000000000000000000000000000000081526004016107249061259e565b60405180910390fd5b61073760006115d7565b565b60008060009054906101000a900473ffffffffffffffffffffffffffffffffffffffff16905090565b6060600680546107719061288d565b80601f016020809104026020016040519081016040528092919081815260200182805461079d9061288d565b80156107ea5780601f106107bf576101008083540402835291602001916107ea565b820191906000526020600020905b8154815290600101906020018083116107cd57829003601f168201915b5050505050905090565b6000806000600360003373ffffffffffffffffffffffffffffffffffffffff1673ffffffffffffffffffffffffffffffffffffffff16815260200190815260200160002054141561087a576040517f08c379a0000000000000000000000000000000000000000000000000000000008152600401610871906125fe565b60405180910390fd5b6000600360003373ffffffffffffffffffffffffffffffffffffffff1673ffffffffffffffffffffffffffffffffffffffff1681526020019081526020016000205490506000600282815481106108fa577f4e487b7100000000000000000000000000000000000000000000000000000000600052603260045260246000fd5b906000526020600020906002020160010180549050905060008061091e848461169b565b8092508193505050818195509550505050509091565b600061093e6115cf565b73ffffffffffffffffffffffffffffffffffffffff1661095c610739565b73ffffffffffffffffffffffffffffffffffffffff16146109b2576040517f08c379a00000000000000000000000000000000000000000000000000000000081526004016109a99061259e565b60405180910390fd5b6109bc8383611808565b6001905092915050565b600860003373ffffffffffffffffffffffffffffffffffffffff1673ffffffffffffffffffffffffffffffffffffffff16815260200190815260200160002054811115610a48576040517f08c379a0000000000000000000000000000000000000000000000000000000008152600401610a3f9061251e565b60405180910390fd5b610a5181611a06565b610a5b3382611808565b50565b6000610a6b338484610dd8565b6001905092915050565b6000610a7f611c00565b9050610a8b3382611453565b50565b6000600960008473ffffffffffffffffffffffffffffffffffffffff1673ffffffffffffffffffffffffffffffffffffffff16815260200190815260200160002060008373ffffffffffffffffffffffffffffffffffffffff1673ffffffffffffffffffffffffffffffffffffffff16815260200190815260200160002054905092915050565b610b1d6115cf565b73ffffffffffffffffffffffffffffffffffffffff16610b3b610739565b73ffffffffffffffffffffffffffffffffffffffff1614610b91576040517f08c379a0000000000000000000000000000000000000000000000000000000008152600401610b889061259e565b60405180910390fd5b600073ffffffffffffffffffffffffffffffffffffffff168173ffffffffffffffffffffffffffffffffffffffff161415610c01576040517f08c379a0000000000000000000000000000000000000000000000000000000008152600401610bf89061249e565b60405180910390fd5b610c0a816115d7565b50565b600073ffffffffffffffffffffffffffffffffffffffff168373ffffffffffffffffffffffffffffffffffffffff161415610c7d576040517f08c379a0000000000000000000000000000000000000000000000000000000008152600401610c749061253e565b60405180910390fd5b600073ffffffffffffffffffffffffffffffffffffffff168273ffffffffffffffffffffffffffffffffffffffff161415610ced576040517f08c379a0000000000000000000000000000000000000000000000000000000008152600401610ce4906124de565b60405180910390fd5b80600960008573ffffffffffffffffffffffffffffffffffffffff1673ffffffffffffffffffffffffffffffffffffffff16815260200190815260200160002060008473ffffffffffffffffffffffffffffffffffffffff1673ffffffffffffffffffffffffffffffffffffffff168152602001908152602001600020819055508173ffffffffffffffffffffffffffffffffffffffff168373ffffffffffffffffffffffffffffffffffffffff167f8c5be1e5ebec7d5bd14f71427d1e84f3dd0314c0f7b2291e5b200ac8c7c3b92583604051610dcb919061263e565b60405180910390a3505050565b600073ffffffffffffffffffffffffffffffffffffffff168373ffffffffffffffffffffffffffffffffffffffff161415610e48576040517f08c379a0000000000000000000000000000000000000000000000000000000008152600401610e3f906125de565b60405180910390fd5b600073ffffffffffffffffffffffffffffffffffffffff168273ffffffffffffffffffffffffffffffffffffffff161415610eb8576040517f08c379a0000000000000000000000000000000000000000000000000000000008152600401610eaf906125be565b60405180910390fd5b80600860008573ffffffffffffffffffffffffffffffffffffffff1673ffffffffffffffffffffffffffffffffffffffff168152602001908152602001600020541015610f3a576040517f08c379a0000000000000000000000000000000000000000000000000000000008152600401610f31906124be565b60405180910390fd5b80600860008473ffffffffffffffffffffffffffffffffffffffff1673ffffffffffffffffffffffffffffffffffffffff16815260200190815260200160002054610f8591906126f0565b600860008473ffffffffffffffffffffffffffffffffffffffff1673ffffffffffffffffffffffffffffffffffffffff1681526020019081526020016000208190555080600860008573ffffffffffffffffffffffffffffffffffffffff1673ffffffffffffffffffffffffffffffffffffffff1681526020019081526020016000205461101391906127d1565b600860008573ffffffffffffffffffffffffffffffffffffffff1673ffffffffffffffffffffffffffffffffffffffff168152602001908152602001600020819055508173ffffffffffffffffffffffffffffffffffffffff168373ffffffffffffffffffffffffffffffffffffffff167fddf252ad1be2c89b69c2b068fc378daa952ba7f163c4a11628f55a4df523b3ef836040516110b3919061263e565b60405180910390a3505050565b600080600360003373ffffffffffffffffffffffffffffffffffffffff1673ffffffffffffffffffffffffffffffffffffffff168152602001908152602001600020541415611144576040517f08c379a000000000000000000000000000000000000000000000000000000000815260040161113b906125fe565b60405180910390fd5b6000600360003373ffffffffffffffffffffffffffffffffffffffff1673ffffffffffffffffffffffffffffffffffffffff1681526020019081526020016000205490506000600282815481106111c4577f4e487b7100000000000000000000000000000000000000000000000000000000600052603260045260246000fd5b906000526020600020906002020160010180549050905060008060006111ea858561169b565b80935081945050508187111561131a576112048585611e46565b6002858154811061123e577f4e487b7100000000000000000000000000000000000000000000000000000000600052603260045260246000fd5b906000526020600020906002020160010160405180606001604052803373ffffffffffffffffffffffffffffffffffffffff1681526020016000815260200142815250908060018154018082558091505060019003906000526020600020906003020160009091909190915060008201518160000160006101000a81548173ffffffffffffffffffffffffffffffffffffffff021916908373ffffffffffffffffffffffffffffffffffffffff16021790555060208201518160010155604082015181600201555050818361131391906126f0565b9050611446565b6000878361132891906127d1565b90506113348686611e46565b6002868154811061136e577f4e487b7100000000000000000000000000000000000000000000000000000000600052603260045260246000fd5b906000526020600020906002020160010160405180606001604052803373ffffffffffffffffffffffffffffffffffffffff16815260200183815260200142815250908060018154018082558091505060019003906000526020600020906003020160009091909190915060008201518160000160006101000a81548173ffffffffffffffffffffffffffffffffffffffff021916908373ffffffffffffffffffffffffffffffffffffffff16021790555060208201518160010155604082015181600201555050878461144291906126f0565b9150505b8095505050505050919050565b600073ffffffffffffffffffffffffffffffffffffffff168273ffffffffffffffffffffffffffffffffffffffff1614156114c3576040517f08c379a00000000000000000000000000000000000000000000000000000000081526004016114ba9061261e565b60405180910390fd5b806004546114d191906126f0565b60048190555080600860008473ffffffffffffffffffffffffffffffffffffffff1673ffffffffffffffffffffffffffffffffffffffff1681526020019081526020016000205461152291906126f0565b600860008473ffffffffffffffffffffffffffffffffffffffff1673ffffffffffffffffffffffffffffffffffffffff168152602001908152602001600020819055508173ffffffffffffffffffffffffffffffffffffffff16600073ffffffffffffffffffffffffffffffffffffffff167fddf252ad1be2c89b69c2b068fc378daa952ba7f163c4a11628f55a4df523b3ef836040516115c3919061263e565b60405180910390a35050565b600033905090565b60008060009054906101000a900473ffffffffffffffffffffffffffffffffffffffff169050816000806101000a81548173ffffffffffffffffffffffffffffffffffffffff021916908373ffffffffffffffffffffffffffffffffffffffff1602179055508173ffffffffffffffffffffffffffffffffffffffff168173ffffffffffffffffffffffffffffffffffffffff167f8be0079c531659141344cd1fd0a4f28419497f9722a3daafe3b4186f6b6457e060405160405180910390a35050565b60008060008060005b858110156117f8576000600288815481106116e8577f4e487b7100000000000000000000000000000000000000000000000000000000600052603260045260246000fd5b90600052602060002090600202016001018281548110611731577f4e487b7100000000000000000000000000000000000000000000000000000000600052603260045260246000fd5b90600052602060002090600302016040518060600160405290816000820160009054906101000a900473ffffffffffffffffffffffffffffffffffffffff1673ffffffffffffffffffffffffffffffffffffffff1673ffffffffffffffffffffffffffffffffffffffff16815260200160018201548152602001600282015481525050905060006117c182611f34565b90508160200151846117d391906126f0565b935080856117e191906126f0565b9450505080806117f0906128bf565b9150506116a4565b5081819350935050509250929050565b600073ffffffffffffffffffffffffffffffffffffffff168273ffffffffffffffffffffffffffffffffffffffff161415611878576040517f08c379a000000000000000000000000000000000000000000000000000000000815260040161186f9061257e565b60405180910390fd5b80600860008473ffffffffffffffffffffffffffffffffffffffff1673ffffffffffffffffffffffffffffffffffffffff1681526020019081526020016000205410156118fa576040517f08c379a00000000000000000000000000000000000000000000000000000000081526004016118f19061255e565b60405180910390fd5b80600860008473ffffffffffffffffffffffffffffffffffffffff1673ffffffffffffffffffffffffffffffffffffffff1681526020019081526020016000205461194591906127d1565b600860008473ffffffffffffffffffffffffffffffffffffffff1673ffffffffffffffffffffffffffffffffffffffff168152602001908152602001600020819055508060045461199691906127d1565b600481905550600073ffffffffffffffffffffffffffffffffffffffff168273ffffffffffffffffffffffffffffffffffffffff167fddf252ad1be2c89b69c2b068fc378daa952ba7f163c4a11628f55a4df523b3ef836040516119fa919061263e565b60405180910390a35050565b60008111611a49576040517f08c379a0000000000000000000000000000000000000000000000000000000008152600401611a409061247e565b60405180910390fd5b6000600360003373ffffffffffffffffffffffffffffffffffffffff1673ffffffffffffffffffffffffffffffffffffffff16815260200190815260200160002054905060004290506000821415611aa757611aa433611f77565b91505b60028281548110611ae1577f4e487b7100000000000000000000000000000000000000000000000000000000600052603260045260246000fd5b906000526020600020906002020160010160405180606001604052803373ffffffffffffffffffffffffffffffffffffffff16815260200185815260200183815250908060018154018082558091505060019003906000526020600020906003020160009091909190915060008201518160000160006101000a81548173ffffffffffffffffffffffffffffffffffffffff021916908373ffffffffffffffffffffffffffffffffffffffff160217905550602082015181600101556040820151816002015550503373ffffffffffffffffffffffffffffffffffffffff167fb4caaf29adda3eefee3ad552a8e85058589bf834c7466cae4ee58787f70589ed848484604051611bf393929190612682565b60405180910390a2505050565b600080600360003373ffffffffffffffffffffffffffffffffffffffff1673ffffffffffffffffffffffffffffffffffffffff168152602001908152602001600020541415611c84576040517f08c379a0000000000000000000000000000000000000000000000000000000008152600401611c7b906125fe565b60405180910390fd5b6000600360003373ffffffffffffffffffffffffffffffffffffffff1673ffffffffffffffffffffffffffffffffffffffff168152602001908152602001600020549050600060028281548110611d04577f4e487b7100000000000000000000000000000000000000000000000000000000600052603260045260246000fd5b9060005260206000209060020201600101805490509050600080611d28848461169b565b8092508193505050611d3a8484611e46565b60028481548110611d74577f4e487b7100000000000000000000000000000000000000000000000000000000600052603260045260246000fd5b906000526020600020906002020160010160405180606001604052803373ffffffffffffffffffffffffffffffffffffffff16815260200183815260200142815250908060018154018082558091505060019003906000526020600020906003020160009091909190915060008201518160000160006101000a81548173ffffffffffffffffffffffffffffffffffffffff021916908373ffffffffffffffffffffffffffffffffffffffff160217905550602082015181600101556040820151816002015550508194505050505090565b60005b81811015611f2f5760028381548110611e8b577f4e487b7100000000000000000000000000000000000000000000000000000000600052603260045260246000fd5b90600052602060002090600202016001018181548110611ed4577f4e487b7100000000000000000000000000000000000000000000000000000000600052603260045260246000fd5b9060005260206000209060030201600080820160006101000a81549073ffffffffffffffffffffffffffffffffffffffff02191690556001820160009055600282016000905550508080611f27906128bf565b915050611e49565b505050565b6000600154826020015162015180846040015142611f5291906127d1565b611f5c9190612746565b611f669190612777565b611f709190612746565b9050919050565b600060026001816001815401808255809150500390600052602060002090505060006001600280549050611fab91906127d1565b90508260028281548110611fe8577f4e487b7100000000000000000000000000000000000000000000000000000000600052603260045260246000fd5b906000526020600020906002020160000160006101000a81548173ffffffffffffffffffffffffffffffffffffffff021916908373ffffffffffffffffffffffffffffffffffffffff16021790555080600360008573ffffffffffffffffffffffffffffffffffffffff1673ffffffffffffffffffffffffffffffffffffffff1681526020019081526020016000208190555080915050919050565b60008135905061209381612dd2565b92915050565b6000813590506120a881612de9565b92915050565b6000602082840312156120c057600080fd5b60006120ce84828501612084565b91505092915050565b600080604083850312156120ea57600080fd5b60006120f885828601612084565b925050602061210985828601612084565b9150509250929050565b60008060006060848603121561212857600080fd5b600061213686828701612084565b935050602061214786828701612084565b925050604061215886828701612099565b9150509250925092565b6000806040838503121561217557600080fd5b600061218385828601612084565b925050602061219485828601612099565b9150509250929050565b6000602082840312156121b057600080fd5b60006121be84828501612099565b91505092915050565b6121d081612805565b82525050565b6121df81612817565b82525050565b60006121f0826126d4565b6121fa81856126df565b935061220a81856020860161285a565b61221381612995565b840191505092915050565b600061222b6037836126df565b9150612236826129a6565b604082019050919050565b600061224e6026836126df565b9150612259826129f5565b604082019050919050565b6000612271602d836126df565b915061227c82612a44565b604082019050919050565b60006122946022836126df565b915061229f82612a93565b604082019050919050565b60006122b76031836126df565b91506122c282612ae2565b604082019050919050565b60006122da6025836126df565b91506122e582612b31565b604082019050919050565b60006122fd6022836126df565b915061230882612b80565b604082019050919050565b60006123206029836126df565b915061232b82612bcf565b604082019050919050565b60006123436024836126df565b915061234e82612c1e565b604082019050919050565b60006123666020836126df565b915061237182612c6d565b602082019050919050565b60006123896026836126df565b915061239482612c96565b604082019050919050565b60006123ac6028836126df565b91506123b782612ce5565b604082019050919050565b60006123cf6024836126df565b91506123da82612d34565b604082019050919050565b60006123f26022836126df565b91506123fd82612d83565b604082019050919050565b61241181612843565b82525050565b6124208161284d565b82525050565b600060208201905061243b60008301846121c7565b92915050565b600060208201905061245660008301846121d6565b92915050565b6000602082019050818103600083015261247681846121e5565b905092915050565b600060208201905081810360008301526124978161221e565b9050919050565b600060208201905081810360008301526124b781612241565b9050919050565b600060208201905081810360008301526124d781612264565b9050919050565b600060208201905081810360008301526124f781612287565b9050919050565b60006020820190508181036000830152612517816122aa565b9050919050565b60006020820190508181036000830152612537816122cd565b9050919050565b60006020820190508181036000830152612557816122f0565b9050919050565b6000602082019050818103600083015261257781612313565b9050919050565b6000602082019050818103600083015261259781612336565b9050919050565b600060208201905081810360008301526125b781612359565b9050919050565b600060208201905081810360008301526125d78161237c565b9050919050565b600060208201905081810360008301526125f78161239f565b9050919050565b60006020820190508181036000830152612617816123c2565b9050919050565b60006020820190508181036000830152612637816123e5565b9050919050565b60006020820190506126536000830184612408565b92915050565b600060408201905061266e6000830185612408565b61267b6020830184612408565b9392505050565b60006060820190506126976000830186612408565b6126a46020830185612408565b6126b16040830184612408565b949350505050565b60006020820190506126ce6000830184612417565b92915050565b600081519050919050565b600082825260208201905092915050565b60006126fb82612843565b915061270683612843565b9250827fffffffffffffffffffffffffffffffffffffffffffffffffffffffffffffffff0382111561273b5761273a612908565b5b828201905092915050565b600061275182612843565b915061275c83612843565b92508261276c5761276b612937565b5b828204905092915050565b600061278282612843565b915061278d83612843565b9250817fffffffffffffffffffffffffffffffffffffffffffffffffffffffffffffffff04831182151516156127c6576127c5612908565b5b828202905092915050565b60006127dc82612843565b91506127e783612843565b9250828210156127fa576127f9612908565b5b828203905092915050565b600061281082612823565b9050919050565b60008115159050919050565b600073ffffffffffffffffffffffffffffffffffffffff82169050919050565b6000819050919050565b600060ff82169050919050565b60005b8381101561287857808201518184015260208101905061285d565b83811115612887576000848401525b50505050565b600060028204905060018216806128a557607f821691505b602082108114156128b9576128b8612966565b5b50919050565b60006128ca82612843565b91507fffffffffffffffffffffffffffffffffffffffffffffffffffffffffffffffff8214156128fd576128fc612908565b5b600182019050919050565b7f4e487b7100000000000000000000000000000000000000000000000000000000600052601160045260246000fd5b7f4e487b7100000000000000000000000000000000000000000000000000000000600052601260045260246000fd5b7f4e487b7100000000000000000000000000000000000000000000000000000000600052602260045260246000fd5b6000601f19601f8301169050919050565b7f5374616b61626c653a20796f752063616e206f6e6c79207374616b652061207060008201527f6f736974697665206e6f6e206e756c6c20616d6f756e74000000000000000000602082015250565b7f4f776e61626c653a206e6577206f776e657220697320746865207a65726f206160008201527f6464726573730000000000000000000000000000000000000000000000000000602082015250565b7f546f6b656e3a2063616e6e6f74207472616e73666572206d6f7265207468616e60008201527f206163636f756e74206f776e7300000000000000000000000000000000000000602082015250565b7f546f6b656e3a2063616e6e6f7420617070726f7665207a65726f20616464726560008201527f7373000000000000000000000000000000000000000000000000000000000000602082015250565b7f546f6b656e3a20596f752063616e6e6f74207370656e642074686174206d756360008201527f68206f6e2074686973206163636f756e74000000000000000000000000000000602082015250565b7f546f6b656e3a2063616e6e6f74207374616b65206d6f7265207468616e20796f60008201527f75206f776e000000000000000000000000000000000000000000000000000000602082015250565b7f546f6b656e3a207a65726f20616464726573732063616e6e6f7420617070726f60008201527f7665000000000000000000000000000000000000000000000000000000000000602082015250565b7f546f6b656e3a2063616e6e6f74206275726e206d6f7265207468616e2061636360008201527f6f756e74206f776e730000000000000000000000000000000000000000000000602082015250565b7f546f6b656e3a2063616e6e6f74206275726e2066726f6d207a65726f2061646460008201527f7265737300000000000000000000000000000000000000000000000000000000602082015250565b7f4f776e61626c653a2063616c6c6572206973206e6f7420746865206f776e6572600082015250565b7f546f6b656e3a2063616e6e6f74207472616e7366657220746f207a65726f206160008201527f6464726573730000000000000000000000000000000000000000000000000000602082015250565b7f546f6b656e3a2063616e6e6f74207472616e736665722066726f6d207a65726f60008201527f2061646472657373000000000000000000000000000000000000000000000000602082015250565b7f5374616b61626c653a206164647265737320686173206e6f7468696e6720737460008201527f616b656400000000000000000000000000000000000000000000000000000000602082015250565b7f546f6b656e3a2063616e6e6f74206d696e7420746f207a65726f20616464726560008201527f7373000000000000000000000000000000000000000000000000000000000000602082015250565b612ddb81612805565b8114612de657600080fd5b50565b612df281612843565b8114612dfd57600080fd5b5056fea26469706673582212206e67f4cd8e7f17e92f927faa580b68a643517d1af7821377adb4e491c4270c6864736f6c63430008040033",
  "linkReferences": {},
  "deployedLinkReferences": {}
}